{
  "_format": "hh-sol-artifact-1",
  "contractName": "GameFactory",
  "sourceName": "contracts/GameFactory.sol",
  "abi": [
    {
      "inputs": [
        {
          "internalType": "string",
          "name": "_name",
          "type": "string"
        },
        {
          "internalType": "string",
          "name": "_greenfield",
          "type": "string"
        },
        {
          "internalType": "uint256",
          "name": "_price",
          "type": "uint256"
        },
        {
          "internalType": "string[]",
          "name": "_tasks",
          "type": "string[]"
        }
      ],
      "name": "createGame",
      "outputs": [
        {
          "internalType": "address",
          "name": "",
          "type": "address"
        }
      ],
      "stateMutability": "nonpayable",
      "type": "function"
    },
    {
      "inputs": [],
      "name": "getGameAddresses",
      "outputs": [
        {
          "internalType": "address[]",
          "name": "",
          "type": "address[]"
        }
      ],
      "stateMutability": "view",
      "type": "function"
    }
  ],
  "bytecode": "0x608060405234801561001057600080fd5b506135d1806100206000396000f3fe60806040523480156200001157600080fd5b50600436106200003a5760003560e01c8063764680cb146200003f57806393a5e0951462000075575b600080fd5b6200005d60048036038101906200005791906200050a565b62000097565b6040516200006c91906200061e565b60405180910390f35b6200007f620001bf565b6040516200008e919062000709565b60405180910390f35b60008085858585604051620000ac906200024f565b620000bb9493929190620008e9565b604051809103906000f080158015620000d8573d6000803e3d6000fd5b5090506000819080600181540180825580915050600190039060005260206000200160009091909190916101000a81548173ffffffffffffffffffffffffffffffffffffffff021916908373ffffffffffffffffffffffffffffffffffffffff1602179055508073ffffffffffffffffffffffffffffffffffffffff1663f2fde38b336040518263ffffffff1660e01b81526004016200017991906200061e565b600060405180830381600087803b1580156200019457600080fd5b505af1158015620001a9573d6000803e3d6000fd5b5050505060008190508092505050949350505050565b606060008054806020026020016040519081016040528092919081815260200182805480156200024557602002820191906000526020600020905b8160009054906101000a900473ffffffffffffffffffffffffffffffffffffffff1673ffffffffffffffffffffffffffffffffffffffff1681526020019060010190808311620001fa575b5050505050905090565b612c50806200094c83390190565b6000604051905090565b600080fd5b600080fd5b600080fd5b600080fd5b6000601f19601f8301169050919050565b7f4e487b7100000000000000000000000000000000000000000000000000000000600052604160045260246000fd5b620002c6826200027b565b810181811067ffffffffffffffff82111715620002e857620002e76200028c565b5b80604052505050565b6000620002fd6200025d565b90506200030b8282620002bb565b919050565b600067ffffffffffffffff8211156200032e576200032d6200028c565b5b62000339826200027b565b9050602081019050919050565b82818337600083830152505050565b60006200036c620003668462000310565b620002f1565b9050828152602081018484840111156200038b576200038a62000276565b5b6200039884828562000346565b509392505050565b600082601f830112620003b857620003b762000271565b5b8135620003ca84826020860162000355565b91505092915050565b6000819050919050565b620003e881620003d3565b8114620003f457600080fd5b50565b6000813590506200040881620003dd565b92915050565b600067ffffffffffffffff8211156200042c576200042b6200028c565b5b602082029050602081019050919050565b600080fd5b60006200045962000453846200040e565b620002f1565b905080838252602082019050602084028301858111156200047f576200047e6200043d565b5b835b81811015620004cd57803567ffffffffffffffff811115620004a857620004a762000271565b5b808601620004b78982620003a0565b8552602085019450505060208101905062000481565b5050509392505050565b600082601f830112620004ef57620004ee62000271565b5b81356200050184826020860162000442565b91505092915050565b6000806000806080858703121562000527576200052662000267565b5b600085013567ffffffffffffffff8111156200054857620005476200026c565b5b6200055687828801620003a0565b945050602085013567ffffffffffffffff8111156200057a57620005796200026c565b5b6200058887828801620003a0565b93505060406200059b87828801620003f7565b925050606085013567ffffffffffffffff811115620005bf57620005be6200026c565b5b620005cd87828801620004d7565b91505092959194509250565b600073ffffffffffffffffffffffffffffffffffffffff82169050919050565b60006200060682620005d9565b9050919050565b6200061881620005f9565b82525050565b60006020820190506200063560008301846200060d565b92915050565b600081519050919050565b600082825260208201905092915050565b6000819050602082019050919050565b6200067281620005f9565b82525050565b600062000686838362000667565b60208301905092915050565b6000602082019050919050565b6000620006ac826200063b565b620006b8818562000646565b9350620006c58362000657565b8060005b83811015620006fc578151620006e0888262000678565b9750620006ed8362000692565b925050600181019050620006c9565b5085935050505092915050565b600060208201905081810360008301526200072581846200069f565b905092915050565b600081519050919050565b600082825260208201905092915050565b60005b83811015620007695780820151818401526020810190506200074c565b60008484015250505050565b600062000782826200072d565b6200078e818562000738565b9350620007a081856020860162000749565b620007ab816200027b565b840191505092915050565b620007c181620003d3565b82525050565b600081519050919050565b600082825260208201905092915050565b6000819050602082019050919050565b600082825260208201905092915050565b600062000811826200072d565b6200081d8185620007f3565b93506200082f81856020860162000749565b6200083a816200027b565b840191505092915050565b600062000853838362000804565b905092915050565b6000602082019050919050565b60006200087582620007c7565b620008818185620007d2565b9350836020820285016200089585620007e3565b8060005b85811015620008d75784840389528151620008b5858262000845565b9450620008c2836200085b565b925060208a0199505060018101905062000899565b50829750879550505050505092915050565b6000608082019050818103600083015262000905818762000775565b905081810360208301526200091b818662000775565b90506200092c6040830185620007b6565b818103606083015262000940818462000868565b90509594505050505056fe60806040523480156200001157600080fd5b5060405162002c5038038062002c50833981810160405281019062000037919062000588565b33600073ffffffffffffffffffffffffffffffffffffffff168173ffffffffffffffffffffffffffffffffffffffff1603620000ad5760006040517f1e4fbdf7000000000000000000000000000000000000000000000000000000008152600401620000a491906200069c565b60405180910390fd5b620000be816200010d60201b60201c565b508360029081620000d09190620008fa565b508260019081620000e29190620008fa565b5081600381905550806004908051906020019062000102929190620001d1565b5050505050620009e1565b60008060009054906101000a900473ffffffffffffffffffffffffffffffffffffffff169050816000806101000a81548173ffffffffffffffffffffffffffffffffffffffff021916908373ffffffffffffffffffffffffffffffffffffffff1602179055508173ffffffffffffffffffffffffffffffffffffffff168173ffffffffffffffffffffffffffffffffffffffff167f8be0079c531659141344cd1fd0a4f28419497f9722a3daafe3b4186f6b6457e060405160405180910390a35050565b8280548282559060005260206000209081019282156200021e579160200282015b828111156200021d5782518290816200020c9190620008fa565b5091602001919060010190620001f2565b5b5090506200022d919062000231565b5090565b5b808211156200025557600081816200024b919062000259565b5060010162000232565b5090565b5080546200026790620006f3565b6000825580601f106200027b57506200029c565b601f0160209004906000526020600020908101906200029b91906200029f565b5b50565b5b80821115620002ba576000816000905550600101620002a0565b5090565b6000604051905090565b600080fd5b600080fd5b600080fd5b600080fd5b6000601f19601f8301169050919050565b7f4e487b7100000000000000000000000000000000000000000000000000000000600052604160045260246000fd5b6200032782620002dc565b810181811067ffffffffffffffff82111715620003495762000348620002ed565b5b80604052505050565b60006200035e620002be565b90506200036c82826200031c565b919050565b600067ffffffffffffffff8211156200038f576200038e620002ed565b5b6200039a82620002dc565b9050602081019050919050565b60005b83811015620003c7578082015181840152602081019050620003aa565b60008484015250505050565b6000620003ea620003e48462000371565b62000352565b905082815260208101848484011115620004095762000408620002d7565b5b62000416848285620003a7565b509392505050565b600082601f830112620004365762000435620002d2565b5b815162000448848260208601620003d3565b91505092915050565b6000819050919050565b620004668162000451565b81146200047257600080fd5b50565b60008151905062000486816200045b565b92915050565b600067ffffffffffffffff821115620004aa57620004a9620002ed565b5b602082029050602081019050919050565b600080fd5b6000620004d7620004d1846200048c565b62000352565b90508083825260208201905060208402830185811115620004fd57620004fc620004bb565b5b835b818110156200054b57805167ffffffffffffffff811115620005265762000525620002d2565b5b8086016200053589826200041e565b85526020850194505050602081019050620004ff565b5050509392505050565b600082601f8301126200056d576200056c620002d2565b5b81516200057f848260208601620004c0565b91505092915050565b60008060008060808587031215620005a557620005a4620002c8565b5b600085015167ffffffffffffffff811115620005c657620005c5620002cd565b5b620005d4878288016200041e565b945050602085015167ffffffffffffffff811115620005f857620005f7620002cd565b5b62000606878288016200041e565b9350506040620006198782880162000475565b925050606085015167ffffffffffffffff8111156200063d576200063c620002cd565b5b6200064b8782880162000555565b91505092959194509250565b600073ffffffffffffffffffffffffffffffffffffffff82169050919050565b6000620006848262000657565b9050919050565b620006968162000677565b82525050565b6000602082019050620006b360008301846200068b565b92915050565b600081519050919050565b7f4e487b7100000000000000000000000000000000000000000000000000000000600052602260045260246000fd5b600060028204905060018216806200070c57607f821691505b602082108103620007225762000721620006c4565b5b50919050565b60008190508160005260206000209050919050565b60006020601f8301049050919050565b600082821b905092915050565b6000600883026200078c7fffffffffffffffffffffffffffffffffffffffffffffffffffffffffffffffff826200074d565b6200079886836200074d565b95508019841693508086168417925050509392505050565b6000819050919050565b6000620007db620007d5620007cf8462000451565b620007b0565b62000451565b9050919050565b6000819050919050565b620007f783620007ba565b6200080f6200080682620007e2565b8484546200075a565b825550505050565b600090565b6200082662000817565b62000833818484620007ec565b505050565b5b818110156200085b576200084f6000826200081c565b60018101905062000839565b5050565b601f821115620008aa57620008748162000728565b6200087f846200073d565b810160208510156200088f578190505b620008a76200089e856200073d565b83018262000838565b50505b505050565b600082821c905092915050565b6000620008cf60001984600802620008af565b1980831691505092915050565b6000620008ea8383620008bc565b9150826002028217905092915050565b6200090582620006b9565b67ffffffffffffffff811115620009215762000920620002ed565b5b6200092d8254620006f3565b6200093a8282856200085f565b600060209050601f8311600181146200097257600084156200095d578287015190505b620009698582620008dc565b865550620009d9565b601f198416620009828662000728565b60005b82811015620009ac5784890151825560018201915060208501945060208101905062000985565b86831015620009cc5784890151620009c8601f891682620008bc565b8355505b6001600288020188555050505b505050505050565b61225f80620009f16000396000f3fe608060405260043610620000865760003560e01c80638da5cb5b11620000555780638da5cb5b1462000111578063a035b1fe1462000141578063b966ebbf1462000171578063f2fde38b14620001a15762000086565b806306fdde03146200008b578063072c6cda14620000bb57806349cd2abf14620000eb578063715018a614620000f7575b600080fd5b3480156200009857600080fd5b50620000a3620001cf565b604051620000b2919062000863565b60405180910390f35b348015620000c857600080fd5b50620000d362000265565b604051620000e29190620008cc565b60405180910390f35b620000f5620002cc565b005b3480156200010457600080fd5b506200010f620004f5565b005b3480156200011e57600080fd5b50620001296200050d565b604051620001389190620008cc565b60405180910390f35b3480156200014e57600080fd5b506200015962000536565b60405162000168919062000904565b60405180910390f35b3480156200017e57600080fd5b50620001896200053c565b60405162000198919062000863565b60405180910390f35b348015620001ae57600080fd5b50620001cd6004803603810190620001c7919062000957565b620005d2565b005b60028054620001de90620009b8565b80601f01602080910402602001604051908101604052809291908181526020018280546200020c90620009b8565b80156200025d5780601f1062000231576101008083540402835291602001916200025d565b820191906000526020600020905b8154815290600101906020018083116200023f57829003601f168201915b505050505081565b6000600560003373ffffffffffffffffffffffffffffffffffffffff1673ffffffffffffffffffffffffffffffffffffffff16815260200190815260200160002060009054906101000a900473ffffffffffffffffffffffffffffffffffffffff16905090565b600073ffffffffffffffffffffffffffffffffffffffff16600560003373ffffffffffffffffffffffffffffffffffffffff1673ffffffffffffffffffffffffffffffffffffffff16815260200190815260200160002060009054906101000a900473ffffffffffffffffffffffffffffffffffffffff1673ffffffffffffffffffffffffffffffffffffffff16146200039d576040517f08c379a0000000000000000000000000000000000000000000000000000000008152600401620003949062000a3d565b60405180910390fd5b600354341015620003e5576040517f08c379a0000000000000000000000000000000000000000000000000000000008152600401620003dc9062000aaf565b60405180910390fd5b620003ef6200050d565b73ffffffffffffffffffffffffffffffffffffffff166108fc349081150290604051600060405180830381858888f1935050505015801562000435573d6000803e3d6000fd5b50600060046040516200044890620007bb565b62000454919062000c5b565b604051809103906000f08015801562000471573d6000803e3d6000fd5b50905080600560003373ffffffffffffffffffffffffffffffffffffffff1673ffffffffffffffffffffffffffffffffffffffff16815260200190815260200160002060006101000a81548173ffffffffffffffffffffffffffffffffffffffff021916908373ffffffffffffffffffffffffffffffffffffffff16021790555050565b620004ff6200065f565b6200050b6000620006ef565b565b60008060009054906101000a900473ffffffffffffffffffffffffffffffffffffffff16905090565b60035481565b600180546200054b90620009b8565b80601f01602080910402602001604051908101604052809291908181526020018280546200057990620009b8565b8015620005ca5780601f106200059e57610100808354040283529160200191620005ca565b820191906000526020600020905b815481529060010190602001808311620005ac57829003601f168201915b505050505081565b620005dc6200065f565b600073ffffffffffffffffffffffffffffffffffffffff168173ffffffffffffffffffffffffffffffffffffffff1603620006515760006040517f1e4fbdf7000000000000000000000000000000000000000000000000000000008152600401620006489190620008cc565b60405180910390fd5b6200065c81620006ef565b50565b62000669620007b3565b73ffffffffffffffffffffffffffffffffffffffff16620006896200050d565b73ffffffffffffffffffffffffffffffffffffffff1614620006ed57620006af620007b3565b6040517f118cdaa7000000000000000000000000000000000000000000000000000000008152600401620006e49190620008cc565b60405180910390fd5b565b60008060009054906101000a900473ffffffffffffffffffffffffffffffffffffffff169050816000806101000a81548173ffffffffffffffffffffffffffffffffffffffff021916908373ffffffffffffffffffffffffffffffffffffffff1602179055508173ffffffffffffffffffffffffffffffffffffffff168173ffffffffffffffffffffffffffffffffffffffff167f8be0079c531659141344cd1fd0a4f28419497f9722a3daafe3b4186f6b6457e060405160405180910390a35050565b600033905090565b6115aa8062000c8083390190565b600081519050919050565b600082825260208201905092915050565b60005b8381101562000805578082015181840152602081019050620007e8565b60008484015250505050565b6000601f19601f8301169050919050565b60006200082f82620007c9565b6200083b8185620007d4565b93506200084d818560208601620007e5565b620008588162000811565b840191505092915050565b600060208201905081810360008301526200087f818462000822565b905092915050565b600073ffffffffffffffffffffffffffffffffffffffff82169050919050565b6000620008b48262000887565b9050919050565b620008c681620008a7565b82525050565b6000602082019050620008e36000830184620008bb565b92915050565b6000819050919050565b620008fe81620008e9565b82525050565b60006020820190506200091b6000830184620008f3565b92915050565b600080fd5b6200093181620008a7565b81146200093d57600080fd5b50565b600081359050620009518162000926565b92915050565b60006020828403121562000970576200096f62000921565b5b6000620009808482850162000940565b91505092915050565b7f4e487b7100000000000000000000000000000000000000000000000000000000600052602260045260246000fd5b60006002820490506001821680620009d157607f821691505b602082108103620009e757620009e662000989565b5b50919050565b7f596f75206861766520616c726561647920626f75676874207468652067616d65600082015250565b600062000a25602083620007d4565b915062000a3282620009ed565b602082019050919050565b6000602082019050818103600083015262000a588162000a16565b9050919050565b7f496e73756666696369656e742066756e64730000000000000000000000000000600082015250565b600062000a97601283620007d4565b915062000aa48262000a5f565b602082019050919050565b6000602082019050818103600083015262000aca8162000a88565b9050919050565b600081549050919050565b600082825260208201905092915050565b60008190508160005260206000209050919050565b600082825260208201905092915050565b60008190508160005260206000209050919050565b6000815462000b3781620009b8565b62000b43818662000b02565b9450600182166000811462000b61576001811462000b785762000baf565b60ff19831686528115156020028601935062000baf565b62000b838562000b13565b60005b8381101562000ba75781548189015260018201915060208101905062000b86565b808801955050505b50505092915050565b600062000bc6838362000b28565b905092915050565b6000600182019050919050565b600062000be88262000ad1565b62000bf4818562000adc565b93508360208202850162000c088562000aed565b8060005b8581101562000c495784840389528162000c27858262000bb8565b945062000c348362000bce565b925060208a0199505060018101905062000c0c565b50829750879550505050505092915050565b6000602082019050818103600083015262000c77818462000bdb565b90509291505056fe60806040523480156200001157600080fd5b50604051620015aa380380620015aa83398181016040528101906200003791906200039a565b60005b815181101562000103576000808383815181106200005d576200005c620003eb565b5b602002602001015160405162000074919062000467565b908152602001604051809103902060006101000a81548160ff0219169083151502179055506001828281518110620000b157620000b0620003eb565b5b6020026020010151908060018154018082558091505060019003906000526020600020016000909190919091509081620000ec9190620006c0565b508080620000fa90620007d6565b9150506200003a565b505062000823565b6000604051905090565b600080fd5b600080fd5b600080fd5b6000601f19601f8301169050919050565b7f4e487b7100000000000000000000000000000000000000000000000000000000600052604160045260246000fd5b6200016f8262000124565b810181811067ffffffffffffffff8211171562000191576200019062000135565b5b80604052505050565b6000620001a66200010b565b9050620001b4828262000164565b919050565b600067ffffffffffffffff821115620001d757620001d662000135565b5b602082029050602081019050919050565b600080fd5b600080fd5b600067ffffffffffffffff82111562000210576200020f62000135565b5b6200021b8262000124565b9050602081019050919050565b60005b83811015620002485780820151818401526020810190506200022b565b60008484015250505050565b60006200026b6200026584620001f2565b6200019a565b9050828152602081018484840111156200028a5762000289620001ed565b5b6200029784828562000228565b509392505050565b600082601f830112620002b757620002b66200011f565b5b8151620002c984826020860162000254565b91505092915050565b6000620002e9620002e384620001b9565b6200019a565b905080838252602082019050602084028301858111156200030f576200030e620001e8565b5b835b818110156200035d57805167ffffffffffffffff8111156200033857620003376200011f565b5b8086016200034789826200029f565b8552602085019450505060208101905062000311565b5050509392505050565b600082601f8301126200037f576200037e6200011f565b5b815162000391848260208601620002d2565b91505092915050565b600060208284031215620003b357620003b262000115565b5b600082015167ffffffffffffffff811115620003d457620003d36200011a565b5b620003e28482850162000367565b91505092915050565b7f4e487b7100000000000000000000000000000000000000000000000000000000600052603260045260246000fd5b600081519050919050565b600081905092915050565b60006200043d826200041a565b62000449818562000425565b93506200045b81856020860162000228565b80840191505092915050565b600062000475828462000430565b915081905092915050565b7f4e487b7100000000000000000000000000000000000000000000000000000000600052602260045260246000fd5b60006002820490506001821680620004c857607f821691505b602082108103620004de57620004dd62000480565b5b50919050565b60008190508160005260206000209050919050565b60006020601f8301049050919050565b600082821b905092915050565b600060088302620005487fffffffffffffffffffffffffffffffffffffffffffffffffffffffffffffffff8262000509565b62000554868362000509565b95508019841693508086168417925050509392505050565b6000819050919050565b6000819050919050565b6000620005a16200059b62000595846200056c565b62000576565b6200056c565b9050919050565b6000819050919050565b620005bd8362000580565b620005d5620005cc82620005a8565b84845462000516565b825550505050565b600090565b620005ec620005dd565b620005f9818484620005b2565b505050565b5b81811015620006215762000615600082620005e2565b600181019050620005ff565b5050565b601f82111562000670576200063a81620004e4565b6200064584620004f9565b8101602085101562000655578190505b6200066d6200066485620004f9565b830182620005fe565b50505b505050565b600082821c905092915050565b6000620006956000198460080262000675565b1980831691505092915050565b6000620006b0838362000682565b9150826002028217905092915050565b620006cb826200041a565b67ffffffffffffffff811115620006e757620006e662000135565b5b620006f38254620004af565b6200070082828562000625565b600060209050601f83116001811462000738576000841562000723578287015190505b6200072f8582620006a2565b8655506200079f565b601f1984166200074886620004e4565b60005b8281101562000772578489015182556001820191506020850194506020810190506200074b565b868310156200079257848901516200078e601f89168262000682565b8355505b6001600288020188555050505b505050505050565b7f4e487b7100000000000000000000000000000000000000000000000000000000600052601160045260246000fd5b6000620007e3826200056c565b91507fffffffffffffffffffffffffffffffffffffffffffffffffffffffffffffffff8203620008185762000817620007a7565b5b600182019050919050565b610d7780620008336000396000f3fe608060405234801561001057600080fd5b506004361061007d5760003560e01c80635ee66e881161005b5780635ee66e8814610100578063722fed7e1461013057806396740de31461014e578063d826f88f1461016d5761007d565b806304a87e38146100825780633251c049146100a0578063394c244b146100d0575b600080fd5b61008a610177565b60405161009791906107d3565b60405180910390f35b6100ba60048036038101906100b5919061093e565b610250565b6040516100c791906109a2565b60405180910390f35b6100ea60048036038101906100e5919061093e565b6102fd565b6040516100f791906109a2565b60405180910390f35b61011a6004803603810190610115919061093e565b61038d565b60405161012791906109a2565b60405180910390f35b61013861040a565b60405161014591906109a2565b60405180910390f35b610156610492565b604051610164929190610a7b565b60405180910390f35b610175610608565b005b60606001805480602002602001604051908101604052809291908181526020016000905b828210156102475783829060005260206000200180546101ba90610ae1565b80601f01602080910402602001604051908101604052809291908181526020018280546101e690610ae1565b80156102335780601f1061020857610100808354040283529160200191610233565b820191906000526020600020905b81548152906001019060200180831161021657829003601f168201915b50505050508152602001906001019061019b565b50505050905090565b600080600090505b6001805490508110156102f257826040516020016102769190610b4e565b60405160208183030381529060405280519060200120600182815481106102a05761029f610b65565b5b906000526020600020016040516020016102ba9190610c2c565b60405160208183030381529060405280519060200120036102df5760019150506102f8565b80806102ea90610c7c565b915050610258565b50600090505b919050565b600061030882610250565b610347576040517f08c379a000000000000000000000000000000000000000000000000000000000815260040161033e90610d21565b60405180910390fd5b60016000836040516103599190610b4e565b908152602001604051809103902060006101000a81548160ff02191690831515021790555061038661040a565b9050919050565b600061039882610250565b6103d7576040517f08c379a00000000000000000000000000000000000000000000000000000000081526004016103ce90610d21565b60405180910390fd5b6000826040516103e79190610b4e565b908152602001604051809103902060009054906101000a900460ff169050919050565b600080600090505b6001805490508110156104895760006001828154811061043557610434610b65565b5b9060005260206000200160405161044c9190610c2c565b908152602001604051809103902060009054906101000a900460ff1661047657600091505061048f565b808061048190610c7c565b915050610412565b50600190505b90565b606080606060005b600180549050811015610528576000600182815481106104bd576104bc610b65565b5b906000526020600020016040516104d49190610c2c565b908152602001604051809103902060009054906101000a900460ff1682828151811061050357610502610b65565b5b602002602001019015159081151581525050808061052090610c7c565b91505061049a565b5060018181805480602002602001604051908101604052809291908181526020016000905b828210156105f957838290600052602060002001805461056c90610ae1565b80601f016020809104026020016040519081016040528092919081815260200182805461059890610ae1565b80156105e55780601f106105ba576101008083540402835291602001916105e5565b820191906000526020600020905b8154815290600101906020018083116105c857829003601f168201915b50505050508152602001906001019061054d565b50505050915092509250509091565b60005b60018054905081101561067e576000806001838154811061062f5761062e610b65565b5b906000526020600020016040516106469190610c2c565b908152602001604051809103902060006101000a81548160ff021916908315150217905550808061067690610c7c565b91505061060b565b50565b600081519050919050565b600082825260208201905092915050565b6000819050602082019050919050565b600081519050919050565b600082825260208201905092915050565b60005b838110156106e75780820151818401526020810190506106cc565b60008484015250505050565b6000601f19601f8301169050919050565b600061070f826106ad565b61071981856106b8565b93506107298185602086016106c9565b610732816106f3565b840191505092915050565b60006107498383610704565b905092915050565b6000602082019050919050565b600061076982610681565b610773818561068c565b9350836020820285016107858561069d565b8060005b858110156107c157848403895281516107a2858261073d565b94506107ad83610751565b925060208a01995050600181019050610789565b50829750879550505050505092915050565b600060208201905081810360008301526107ed818461075e565b905092915050565b6000604051905090565b600080fd5b600080fd5b600080fd5b600080fd5b7f4e487b7100000000000000000000000000000000000000000000000000000000600052604160045260246000fd5b61084b826106f3565b810181811067ffffffffffffffff8211171561086a57610869610813565b5b80604052505050565b600061087d6107f5565b90506108898282610842565b919050565b600067ffffffffffffffff8211156108a9576108a8610813565b5b6108b2826106f3565b9050602081019050919050565b82818337600083830152505050565b60006108e16108dc8461088e565b610873565b9050828152602081018484840111156108fd576108fc61080e565b5b6109088482856108bf565b509392505050565b600082601f83011261092557610924610809565b5b81356109358482602086016108ce565b91505092915050565b600060208284031215610954576109536107ff565b5b600082013567ffffffffffffffff81111561097257610971610804565b5b61097e84828501610910565b91505092915050565b60008115159050919050565b61099c81610987565b82525050565b60006020820190506109b76000830184610993565b92915050565b600081519050919050565b600082825260208201905092915050565b6000819050602082019050919050565b6109f281610987565b82525050565b6000610a0483836109e9565b60208301905092915050565b6000602082019050919050565b6000610a28826109bd565b610a3281856109c8565b9350610a3d836109d9565b8060005b83811015610a6e578151610a5588826109f8565b9750610a6083610a10565b925050600181019050610a41565b5085935050505092915050565b60006040820190508181036000830152610a95818561075e565b90508181036020830152610aa98184610a1d565b90509392505050565b7f4e487b7100000000000000000000000000000000000000000000000000000000600052602260045260246000fd5b60006002820490506001821680610af957607f821691505b602082108103610b0c57610b0b610ab2565b5b50919050565b600081905092915050565b6000610b28826106ad565b610b328185610b12565b9350610b428185602086016106c9565b80840191505092915050565b6000610b5a8284610b1d565b915081905092915050565b7f4e487b7100000000000000000000000000000000000000000000000000000000600052603260045260246000fd5b60008190508160005260206000209050919050565b60008154610bb681610ae1565b610bc08186610b12565b94506001821660008114610bdb5760018114610bf057610c23565b60ff1983168652811515820286019350610c23565b610bf985610b94565b60005b83811015610c1b57815481890152600182019150602081019050610bfc565b838801955050505b50505092915050565b6000610c388284610ba9565b915081905092915050565b7f4e487b7100000000000000000000000000000000000000000000000000000000600052601160045260246000fd5b6000819050919050565b6000610c8782610c72565b91507fffffffffffffffffffffffffffffffffffffffffffffffffffffffffffffffff8203610cb957610cb8610c43565b5b600182019050919050565b600082825260208201905092915050565b7f5461736b20646f6573206e6f7420657869737400000000000000000000000000600082015250565b6000610d0b601383610cc4565b9150610d1682610cd5565b602082019050919050565b60006020820190508181036000830152610d3a81610cfe565b905091905056fea2646970667358221220003af1b95055187a0bb61b11f47877cbe71c04d1cc9b6a0f07740abfd420b02264736f6c63430008140033a264697066735822122037b89b6364068296ab7f6f448257083dfe0514a505d51c30e415fdbde9e3923d64736f6c63430008140033a26469706673582212201dd8ec7b615c3a4ddd59f4d1edcca0de7d7d5a411c05784ea8ec62ac2a44fcfe64736f6c63430008140033",
  "linkReferences": {},
  "deployedLinkReferences": {}
}