{
  "_format": "hh-sol-artifact-1",
  "contractName": "GameFactory",
  "sourceName": "contracts/GameFactory.sol",
  "abi": [
    {
      "inputs": [
        {
          "internalType": "string",
          "name": "_name",
          "type": "string"
        },
        {
          "internalType": "string",
          "name": "_greenfield",
          "type": "string"
        },
        {
          "internalType": "uint256",
          "name": "_price",
          "type": "uint256"
        },
        {
          "internalType": "string",
          "name": "_thumbnail",
          "type": "string"
        },
        {
          "internalType": "string[]",
          "name": "_tasks",
          "type": "string[]"
        }
      ],
      "name": "createGame",
      "outputs": [
        {
          "internalType": "address",
          "name": "",
          "type": "address"
        }
      ],
      "stateMutability": "nonpayable",
      "type": "function"
    },
    {
      "inputs": [],
      "name": "getGameAddresses",
      "outputs": [
        {
          "internalType": "address[]",
          "name": "",
          "type": "address[]"
        }
      ],
      "stateMutability": "view",
      "type": "function"
    }
  ],
  "bytecode": "0x608060405234801561001057600080fd5b5061373a806100206000396000f3fe60806040523480156200001157600080fd5b50600436106200003a5760003560e01c806393a5e095146200003f578063d02f6d5e1462000061575b600080fd5b6200004962000097565b60405162000058919062000362565b60405180910390f35b6200007f600480360381019062000079919062000633565b62000127565b6040516200008e919062000748565b60405180910390f35b606060008054806020026020016040519081016040528092919081815260200182805480156200011d57602002820191906000526020600020905b8160009054906101000a900473ffffffffffffffffffffffffffffffffffffffff1673ffffffffffffffffffffffffffffffffffffffff1681526020019060010190808311620000d2575b5050505050905090565b60008086868686866040516200013d9062000252565b6200014d95949392919062000921565b604051809103906000f0801580156200016a573d6000803e3d6000fd5b5090506000819080600181540180825580915050600190039060005260206000200160009091909190916101000a81548173ffffffffffffffffffffffffffffffffffffffff021916908373ffffffffffffffffffffffffffffffffffffffff1602179055508073ffffffffffffffffffffffffffffffffffffffff1663f2fde38b336040518263ffffffff1660e01b81526004016200020b919062000748565b600060405180830381600087803b1580156200022657600080fd5b505af11580156200023b573d6000803e3d6000fd5b505050506000819050809250505095945050505050565b612d6a806200099b83390190565b600081519050919050565b600082825260208201905092915050565b6000819050602082019050919050565b600073ffffffffffffffffffffffffffffffffffffffff82169050919050565b6000620002b9826200028c565b9050919050565b620002cb81620002ac565b82525050565b6000620002df8383620002c0565b60208301905092915050565b6000602082019050919050565b6000620003058262000260565b6200031181856200026b565b93506200031e836200027c565b8060005b8381101562000355578151620003398882620002d1565b97506200034683620002eb565b92505060018101905062000322565b5085935050505092915050565b600060208201905081810360008301526200037e8184620002f8565b905092915050565b6000604051905090565b600080fd5b600080fd5b600080fd5b600080fd5b6000601f19601f8301169050919050565b7f4e487b7100000000000000000000000000000000000000000000000000000000600052604160045260246000fd5b620003ef82620003a4565b810181811067ffffffffffffffff82111715620004115762000410620003b5565b5b80604052505050565b60006200042662000386565b9050620004348282620003e4565b919050565b600067ffffffffffffffff821115620004575762000456620003b5565b5b6200046282620003a4565b9050602081019050919050565b82818337600083830152505050565b6000620004956200048f8462000439565b6200041a565b905082815260208101848484011115620004b457620004b36200039f565b5b620004c18482856200046f565b509392505050565b600082601f830112620004e157620004e06200039a565b5b8135620004f38482602086016200047e565b91505092915050565b6000819050919050565b6200051181620004fc565b81146200051d57600080fd5b50565b600081359050620005318162000506565b92915050565b600067ffffffffffffffff821115620005555762000554620003b5565b5b602082029050602081019050919050565b600080fd5b6000620005826200057c8462000537565b6200041a565b90508083825260208201905060208402830185811115620005a857620005a762000566565b5b835b81811015620005f657803567ffffffffffffffff811115620005d157620005d06200039a565b5b808601620005e08982620004c9565b85526020850194505050602081019050620005aa565b5050509392505050565b600082601f8301126200061857620006176200039a565b5b81356200062a8482602086016200056b565b91505092915050565b600080600080600060a0868803121562000652576200065162000390565b5b600086013567ffffffffffffffff81111562000673576200067262000395565b5b6200068188828901620004c9565b955050602086013567ffffffffffffffff811115620006a557620006a462000395565b5b620006b388828901620004c9565b9450506040620006c68882890162000520565b935050606086013567ffffffffffffffff811115620006ea57620006e962000395565b5b620006f888828901620004c9565b925050608086013567ffffffffffffffff8111156200071c576200071b62000395565b5b6200072a8882890162000600565b9150509295509295909350565b6200074281620002ac565b82525050565b60006020820190506200075f600083018462000737565b92915050565b600081519050919050565b600082825260208201905092915050565b60005b83811015620007a157808201518184015260208101905062000784565b60008484015250505050565b6000620007ba8262000765565b620007c6818562000770565b9350620007d881856020860162000781565b620007e381620003a4565b840191505092915050565b620007f981620004fc565b82525050565b600081519050919050565b600082825260208201905092915050565b6000819050602082019050919050565b600082825260208201905092915050565b6000620008498262000765565b6200085581856200082b565b93506200086781856020860162000781565b6200087281620003a4565b840191505092915050565b60006200088b83836200083c565b905092915050565b6000602082019050919050565b6000620008ad82620007ff565b620008b981856200080a565b935083602082028501620008cd856200081b565b8060005b858110156200090f5784840389528151620008ed85826200087d565b9450620008fa8362000893565b925060208a01995050600181019050620008d1565b50829750879550505050505092915050565b600060a08201905081810360008301526200093d8188620007ad565b90508181036020830152620009538187620007ad565b9050620009646040830186620007ee565b8181036060830152620009788185620007ad565b905081810360808301526200098e8184620008a0565b9050969550505050505056fe60806040523480156200001157600080fd5b5060405162002d6a38038062002d6a83398181016040528101906200003791906200059b565b33600073ffffffffffffffffffffffffffffffffffffffff168173ffffffffffffffffffffffffffffffffffffffff1603620000ad5760006040517f1e4fbdf7000000000000000000000000000000000000000000000000000000008152600401620000a49190620006e4565b60405180910390fd5b620000be816200012060201b60201c565b508460029081620000d0919062000942565b508360019081620000e2919062000942565b50826004819055508160039081620000fb919062000942565b50806005908051906020019062000114929190620001e4565b50505050505062000a29565b60008060009054906101000a900473ffffffffffffffffffffffffffffffffffffffff169050816000806101000a81548173ffffffffffffffffffffffffffffffffffffffff021916908373ffffffffffffffffffffffffffffffffffffffff1602179055508173ffffffffffffffffffffffffffffffffffffffff168173ffffffffffffffffffffffffffffffffffffffff167f8be0079c531659141344cd1fd0a4f28419497f9722a3daafe3b4186f6b6457e060405160405180910390a35050565b82805482825590600052602060002090810192821562000231579160200282015b82811115620002305782518290816200021f919062000942565b509160200191906001019062000205565b5b50905062000240919062000244565b5090565b5b808211156200026857600081816200025e91906200026c565b5060010162000245565b5090565b5080546200027a906200073b565b6000825580601f106200028e5750620002af565b601f016020900490600052602060002090810190620002ae9190620002b2565b5b50565b5b80821115620002cd576000816000905550600101620002b3565b5090565b6000604051905090565b600080fd5b600080fd5b600080fd5b600080fd5b6000601f19601f8301169050919050565b7f4e487b7100000000000000000000000000000000000000000000000000000000600052604160045260246000fd5b6200033a82620002ef565b810181811067ffffffffffffffff821117156200035c576200035b62000300565b5b80604052505050565b600062000371620002d1565b90506200037f82826200032f565b919050565b600067ffffffffffffffff821115620003a257620003a162000300565b5b620003ad82620002ef565b9050602081019050919050565b60005b83811015620003da578082015181840152602081019050620003bd565b60008484015250505050565b6000620003fd620003f78462000384565b62000365565b9050828152602081018484840111156200041c576200041b620002ea565b5b62000429848285620003ba565b509392505050565b600082601f830112620004495762000448620002e5565b5b81516200045b848260208601620003e6565b91505092915050565b6000819050919050565b620004798162000464565b81146200048557600080fd5b50565b60008151905062000499816200046e565b92915050565b600067ffffffffffffffff821115620004bd57620004bc62000300565b5b602082029050602081019050919050565b600080fd5b6000620004ea620004e4846200049f565b62000365565b9050808382526020820190506020840283018581111562000510576200050f620004ce565b5b835b818110156200055e57805167ffffffffffffffff811115620005395762000538620002e5565b5b80860162000548898262000431565b8552602085019450505060208101905062000512565b5050509392505050565b600082601f83011262000580576200057f620002e5565b5b815162000592848260208601620004d3565b91505092915050565b600080600080600060a08688031215620005ba57620005b9620002db565b5b600086015167ffffffffffffffff811115620005db57620005da620002e0565b5b620005e98882890162000431565b955050602086015167ffffffffffffffff8111156200060d576200060c620002e0565b5b6200061b8882890162000431565b94505060406200062e8882890162000488565b935050606086015167ffffffffffffffff811115620006525762000651620002e0565b5b620006608882890162000431565b925050608086015167ffffffffffffffff811115620006845762000683620002e0565b5b620006928882890162000568565b9150509295509295909350565b600073ffffffffffffffffffffffffffffffffffffffff82169050919050565b6000620006cc826200069f565b9050919050565b620006de81620006bf565b82525050565b6000602082019050620006fb6000830184620006d3565b92915050565b600081519050919050565b7f4e487b7100000000000000000000000000000000000000000000000000000000600052602260045260246000fd5b600060028204905060018216806200075457607f821691505b6020821081036200076a57620007696200070c565b5b50919050565b60008190508160005260206000209050919050565b60006020601f8301049050919050565b600082821b905092915050565b600060088302620007d47fffffffffffffffffffffffffffffffffffffffffffffffffffffffffffffffff8262000795565b620007e0868362000795565b95508019841693508086168417925050509392505050565b6000819050919050565b6000620008236200081d620008178462000464565b620007f8565b62000464565b9050919050565b6000819050919050565b6200083f8362000802565b620008576200084e826200082a565b848454620007a2565b825550505050565b600090565b6200086e6200085f565b6200087b81848462000834565b505050565b5b81811015620008a3576200089760008262000864565b60018101905062000881565b5050565b601f821115620008f257620008bc8162000770565b620008c78462000785565b81016020851015620008d7578190505b620008ef620008e68562000785565b83018262000880565b50505b505050565b600082821c905092915050565b60006200091760001984600802620008f7565b1980831691505092915050565b600062000932838362000904565b9150826002028217905092915050565b6200094d8262000701565b67ffffffffffffffff81111562000969576200096862000300565b5b6200097582546200073b565b62000982828285620008a7565b600060209050601f831160018114620009ba5760008415620009a5578287015190505b620009b1858262000924565b86555062000a21565b601f198416620009ca8662000770565b60005b82811015620009f457848901518255600182019150602085019450602081019050620009cd565b8683101562000a14578489015162000a10601f89168262000904565b8355505b6001600288020188555050505b505050505050565b6123318062000a396000396000f3fe608060405260043610620000925760003560e01c8063715018a61162000061578063715018a614620001335780638da5cb5b146200014d578063a035b1fe146200017d578063b966ebbf14620001ad578063f2fde38b14620001dd5762000092565b806306fdde031462000097578063072c6cda14620000c757806349cd2abf14620000f75780635afc2ab41462000103575b600080fd5b348015620000a457600080fd5b50620000af6200020b565b604051620000be919062000935565b60405180910390f35b348015620000d457600080fd5b50620000df620002a1565b604051620000ee91906200099e565b60405180910390f35b6200010162000308565b005b3480156200011057600080fd5b506200011b62000531565b6040516200012a919062000935565b60405180910390f35b3480156200014057600080fd5b506200014b620005c7565b005b3480156200015a57600080fd5b5062000165620005df565b6040516200017491906200099e565b60405180910390f35b3480156200018a57600080fd5b506200019562000608565b604051620001a49190620009d6565b60405180910390f35b348015620001ba57600080fd5b50620001c56200060e565b604051620001d4919062000935565b60405180910390f35b348015620001ea57600080fd5b5062000209600480360381019062000203919062000a29565b620006a4565b005b600280546200021a9062000a8a565b80601f0160208091040260200160405190810160405280929190818152602001828054620002489062000a8a565b8015620002995780601f106200026d5761010080835404028352916020019162000299565b820191906000526020600020905b8154815290600101906020018083116200027b57829003601f168201915b505050505081565b6000600660003373ffffffffffffffffffffffffffffffffffffffff1673ffffffffffffffffffffffffffffffffffffffff16815260200190815260200160002060009054906101000a900473ffffffffffffffffffffffffffffffffffffffff16905090565b600073ffffffffffffffffffffffffffffffffffffffff16600660003373ffffffffffffffffffffffffffffffffffffffff1673ffffffffffffffffffffffffffffffffffffffff16815260200190815260200160002060009054906101000a900473ffffffffffffffffffffffffffffffffffffffff1673ffffffffffffffffffffffffffffffffffffffff1614620003d9576040517f08c379a0000000000000000000000000000000000000000000000000000000008152600401620003d09062000b0f565b60405180910390fd5b60045434101562000421576040517f08c379a0000000000000000000000000000000000000000000000000000000008152600401620004189062000b81565b60405180910390fd5b6200042b620005df565b73ffffffffffffffffffffffffffffffffffffffff166108fc349081150290604051600060405180830381858888f1935050505015801562000471573d6000803e3d6000fd5b506000600560405162000484906200088d565b62000490919062000d2d565b604051809103906000f080158015620004ad573d6000803e3d6000fd5b50905080600660003373ffffffffffffffffffffffffffffffffffffffff1673ffffffffffffffffffffffffffffffffffffffff16815260200190815260200160002060006101000a81548173ffffffffffffffffffffffffffffffffffffffff021916908373ffffffffffffffffffffffffffffffffffffffff16021790555050565b60038054620005409062000a8a565b80601f01602080910402602001604051908101604052809291908181526020018280546200056e9062000a8a565b8015620005bf5780601f106200059357610100808354040283529160200191620005bf565b820191906000526020600020905b815481529060010190602001808311620005a157829003601f168201915b505050505081565b620005d162000731565b620005dd6000620007c1565b565b60008060009054906101000a900473ffffffffffffffffffffffffffffffffffffffff16905090565b60045481565b600180546200061d9062000a8a565b80601f01602080910402602001604051908101604052809291908181526020018280546200064b9062000a8a565b80156200069c5780601f1062000670576101008083540402835291602001916200069c565b820191906000526020600020905b8154815290600101906020018083116200067e57829003601f168201915b505050505081565b620006ae62000731565b600073ffffffffffffffffffffffffffffffffffffffff168173ffffffffffffffffffffffffffffffffffffffff1603620007235760006040517f1e4fbdf70000000000000000000000000000000000000000000000000000000081526004016200071a91906200099e565b60405180910390fd5b6200072e81620007c1565b50565b6200073b62000885565b73ffffffffffffffffffffffffffffffffffffffff166200075b620005df565b73ffffffffffffffffffffffffffffffffffffffff1614620007bf576200078162000885565b6040517f118cdaa7000000000000000000000000000000000000000000000000000000008152600401620007b691906200099e565b60405180910390fd5b565b60008060009054906101000a900473ffffffffffffffffffffffffffffffffffffffff169050816000806101000a81548173ffffffffffffffffffffffffffffffffffffffff021916908373ffffffffffffffffffffffffffffffffffffffff1602179055508173ffffffffffffffffffffffffffffffffffffffff168173ffffffffffffffffffffffffffffffffffffffff167f8be0079c531659141344cd1fd0a4f28419497f9722a3daafe3b4186f6b6457e060405160405180910390a35050565b600033905090565b6115aa8062000d5283390190565b600081519050919050565b600082825260208201905092915050565b60005b83811015620008d7578082015181840152602081019050620008ba565b60008484015250505050565b6000601f19601f8301169050919050565b600062000901826200089b565b6200090d8185620008a6565b93506200091f818560208601620008b7565b6200092a81620008e3565b840191505092915050565b60006020820190508181036000830152620009518184620008f4565b905092915050565b600073ffffffffffffffffffffffffffffffffffffffff82169050919050565b6000620009868262000959565b9050919050565b620009988162000979565b82525050565b6000602082019050620009b560008301846200098d565b92915050565b6000819050919050565b620009d081620009bb565b82525050565b6000602082019050620009ed6000830184620009c5565b92915050565b600080fd5b62000a038162000979565b811462000a0f57600080fd5b50565b60008135905062000a2381620009f8565b92915050565b60006020828403121562000a425762000a41620009f3565b5b600062000a528482850162000a12565b91505092915050565b7f4e487b7100000000000000000000000000000000000000000000000000000000600052602260045260246000fd5b6000600282049050600182168062000aa357607f821691505b60208210810362000ab95762000ab862000a5b565b5b50919050565b7f596f75206861766520616c726561647920626f75676874207468652067616d65600082015250565b600062000af7602083620008a6565b915062000b048262000abf565b602082019050919050565b6000602082019050818103600083015262000b2a8162000ae8565b9050919050565b7f496e73756666696369656e742066756e64730000000000000000000000000000600082015250565b600062000b69601283620008a6565b915062000b768262000b31565b602082019050919050565b6000602082019050818103600083015262000b9c8162000b5a565b9050919050565b600081549050919050565b600082825260208201905092915050565b60008190508160005260206000209050919050565b600082825260208201905092915050565b60008190508160005260206000209050919050565b6000815462000c098162000a8a565b62000c15818662000bd4565b9450600182166000811462000c33576001811462000c4a5762000c81565b60ff19831686528115156020028601935062000c81565b62000c558562000be5565b60005b8381101562000c795781548189015260018201915060208101905062000c58565b808801955050505b50505092915050565b600062000c98838362000bfa565b905092915050565b6000600182019050919050565b600062000cba8262000ba3565b62000cc6818562000bae565b93508360208202850162000cda8562000bbf565b8060005b8581101562000d1b5784840389528162000cf9858262000c8a565b945062000d068362000ca0565b925060208a0199505060018101905062000cde565b50829750879550505050505092915050565b6000602082019050818103600083015262000d49818462000cad565b90509291505056fe60806040523480156200001157600080fd5b50604051620015aa380380620015aa83398181016040528101906200003791906200039a565b60005b815181101562000103576000808383815181106200005d576200005c620003eb565b5b602002602001015160405162000074919062000467565b908152602001604051809103902060006101000a81548160ff0219169083151502179055506001828281518110620000b157620000b0620003eb565b5b6020026020010151908060018154018082558091505060019003906000526020600020016000909190919091509081620000ec9190620006c0565b508080620000fa90620007d6565b9150506200003a565b505062000823565b6000604051905090565b600080fd5b600080fd5b600080fd5b6000601f19601f8301169050919050565b7f4e487b7100000000000000000000000000000000000000000000000000000000600052604160045260246000fd5b6200016f8262000124565b810181811067ffffffffffffffff8211171562000191576200019062000135565b5b80604052505050565b6000620001a66200010b565b9050620001b4828262000164565b919050565b600067ffffffffffffffff821115620001d757620001d662000135565b5b602082029050602081019050919050565b600080fd5b600080fd5b600067ffffffffffffffff82111562000210576200020f62000135565b5b6200021b8262000124565b9050602081019050919050565b60005b83811015620002485780820151818401526020810190506200022b565b60008484015250505050565b60006200026b6200026584620001f2565b6200019a565b9050828152602081018484840111156200028a5762000289620001ed565b5b6200029784828562000228565b509392505050565b600082601f830112620002b757620002b66200011f565b5b8151620002c984826020860162000254565b91505092915050565b6000620002e9620002e384620001b9565b6200019a565b905080838252602082019050602084028301858111156200030f576200030e620001e8565b5b835b818110156200035d57805167ffffffffffffffff8111156200033857620003376200011f565b5b8086016200034789826200029f565b8552602085019450505060208101905062000311565b5050509392505050565b600082601f8301126200037f576200037e6200011f565b5b815162000391848260208601620002d2565b91505092915050565b600060208284031215620003b357620003b262000115565b5b600082015167ffffffffffffffff811115620003d457620003d36200011a565b5b620003e28482850162000367565b91505092915050565b7f4e487b7100000000000000000000000000000000000000000000000000000000600052603260045260246000fd5b600081519050919050565b600081905092915050565b60006200043d826200041a565b62000449818562000425565b93506200045b81856020860162000228565b80840191505092915050565b600062000475828462000430565b915081905092915050565b7f4e487b7100000000000000000000000000000000000000000000000000000000600052602260045260246000fd5b60006002820490506001821680620004c857607f821691505b602082108103620004de57620004dd62000480565b5b50919050565b60008190508160005260206000209050919050565b60006020601f8301049050919050565b600082821b905092915050565b600060088302620005487fffffffffffffffffffffffffffffffffffffffffffffffffffffffffffffffff8262000509565b62000554868362000509565b95508019841693508086168417925050509392505050565b6000819050919050565b6000819050919050565b6000620005a16200059b62000595846200056c565b62000576565b6200056c565b9050919050565b6000819050919050565b620005bd8362000580565b620005d5620005cc82620005a8565b84845462000516565b825550505050565b600090565b620005ec620005dd565b620005f9818484620005b2565b505050565b5b81811015620006215762000615600082620005e2565b600181019050620005ff565b5050565b601f82111562000670576200063a81620004e4565b6200064584620004f9565b8101602085101562000655578190505b6200066d6200066485620004f9565b830182620005fe565b50505b505050565b600082821c905092915050565b6000620006956000198460080262000675565b1980831691505092915050565b6000620006b0838362000682565b9150826002028217905092915050565b620006cb826200041a565b67ffffffffffffffff811115620006e757620006e662000135565b5b620006f38254620004af565b6200070082828562000625565b600060209050601f83116001811462000738576000841562000723578287015190505b6200072f8582620006a2565b8655506200079f565b601f1984166200074886620004e4565b60005b8281101562000772578489015182556001820191506020850194506020810190506200074b565b868310156200079257848901516200078e601f89168262000682565b8355505b6001600288020188555050505b505050505050565b7f4e487b7100000000000000000000000000000000000000000000000000000000600052601160045260246000fd5b6000620007e3826200056c565b91507fffffffffffffffffffffffffffffffffffffffffffffffffffffffffffffffff8203620008185762000817620007a7565b5b600182019050919050565b610d7780620008336000396000f3fe608060405234801561001057600080fd5b506004361061007d5760003560e01c80635ee66e881161005b5780635ee66e8814610100578063722fed7e1461013057806396740de31461014e578063d826f88f1461016d5761007d565b806304a87e38146100825780633251c049146100a0578063394c244b146100d0575b600080fd5b61008a610177565b60405161009791906107d3565b60405180910390f35b6100ba60048036038101906100b5919061093e565b610250565b6040516100c791906109a2565b60405180910390f35b6100ea60048036038101906100e5919061093e565b6102fd565b6040516100f791906109a2565b60405180910390f35b61011a6004803603810190610115919061093e565b61038d565b60405161012791906109a2565b60405180910390f35b61013861040a565b60405161014591906109a2565b60405180910390f35b610156610492565b604051610164929190610a7b565b60405180910390f35b610175610608565b005b60606001805480602002602001604051908101604052809291908181526020016000905b828210156102475783829060005260206000200180546101ba90610ae1565b80601f01602080910402602001604051908101604052809291908181526020018280546101e690610ae1565b80156102335780601f1061020857610100808354040283529160200191610233565b820191906000526020600020905b81548152906001019060200180831161021657829003601f168201915b50505050508152602001906001019061019b565b50505050905090565b600080600090505b6001805490508110156102f257826040516020016102769190610b4e565b60405160208183030381529060405280519060200120600182815481106102a05761029f610b65565b5b906000526020600020016040516020016102ba9190610c2c565b60405160208183030381529060405280519060200120036102df5760019150506102f8565b80806102ea90610c7c565b915050610258565b50600090505b919050565b600061030882610250565b610347576040517f08c379a000000000000000000000000000000000000000000000000000000000815260040161033e90610d21565b60405180910390fd5b60016000836040516103599190610b4e565b908152602001604051809103902060006101000a81548160ff02191690831515021790555061038661040a565b9050919050565b600061039882610250565b6103d7576040517f08c379a00000000000000000000000000000000000000000000000000000000081526004016103ce90610d21565b60405180910390fd5b6000826040516103e79190610b4e565b908152602001604051809103902060009054906101000a900460ff169050919050565b600080600090505b6001805490508110156104895760006001828154811061043557610434610b65565b5b9060005260206000200160405161044c9190610c2c565b908152602001604051809103902060009054906101000a900460ff1661047657600091505061048f565b808061048190610c7c565b915050610412565b50600190505b90565b606080606060005b600180549050811015610528576000600182815481106104bd576104bc610b65565b5b906000526020600020016040516104d49190610c2c565b908152602001604051809103902060009054906101000a900460ff1682828151811061050357610502610b65565b5b602002602001019015159081151581525050808061052090610c7c565b91505061049a565b5060018181805480602002602001604051908101604052809291908181526020016000905b828210156105f957838290600052602060002001805461056c90610ae1565b80601f016020809104026020016040519081016040528092919081815260200182805461059890610ae1565b80156105e55780601f106105ba576101008083540402835291602001916105e5565b820191906000526020600020905b8154815290600101906020018083116105c857829003601f168201915b50505050508152602001906001019061054d565b50505050915092509250509091565b60005b60018054905081101561067e576000806001838154811061062f5761062e610b65565b5b906000526020600020016040516106469190610c2c565b908152602001604051809103902060006101000a81548160ff021916908315150217905550808061067690610c7c565b91505061060b565b50565b600081519050919050565b600082825260208201905092915050565b6000819050602082019050919050565b600081519050919050565b600082825260208201905092915050565b60005b838110156106e75780820151818401526020810190506106cc565b60008484015250505050565b6000601f19601f8301169050919050565b600061070f826106ad565b61071981856106b8565b93506107298185602086016106c9565b610732816106f3565b840191505092915050565b60006107498383610704565b905092915050565b6000602082019050919050565b600061076982610681565b610773818561068c565b9350836020820285016107858561069d565b8060005b858110156107c157848403895281516107a2858261073d565b94506107ad83610751565b925060208a01995050600181019050610789565b50829750879550505050505092915050565b600060208201905081810360008301526107ed818461075e565b905092915050565b6000604051905090565b600080fd5b600080fd5b600080fd5b600080fd5b7f4e487b7100000000000000000000000000000000000000000000000000000000600052604160045260246000fd5b61084b826106f3565b810181811067ffffffffffffffff8211171561086a57610869610813565b5b80604052505050565b600061087d6107f5565b90506108898282610842565b919050565b600067ffffffffffffffff8211156108a9576108a8610813565b5b6108b2826106f3565b9050602081019050919050565b82818337600083830152505050565b60006108e16108dc8461088e565b610873565b9050828152602081018484840111156108fd576108fc61080e565b5b6109088482856108bf565b509392505050565b600082601f83011261092557610924610809565b5b81356109358482602086016108ce565b91505092915050565b600060208284031215610954576109536107ff565b5b600082013567ffffffffffffffff81111561097257610971610804565b5b61097e84828501610910565b91505092915050565b60008115159050919050565b61099c81610987565b82525050565b60006020820190506109b76000830184610993565b92915050565b600081519050919050565b600082825260208201905092915050565b6000819050602082019050919050565b6109f281610987565b82525050565b6000610a0483836109e9565b60208301905092915050565b6000602082019050919050565b6000610a28826109bd565b610a3281856109c8565b9350610a3d836109d9565b8060005b83811015610a6e578151610a5588826109f8565b9750610a6083610a10565b925050600181019050610a41565b5085935050505092915050565b60006040820190508181036000830152610a95818561075e565b90508181036020830152610aa98184610a1d565b90509392505050565b7f4e487b7100000000000000000000000000000000000000000000000000000000600052602260045260246000fd5b60006002820490506001821680610af957607f821691505b602082108103610b0c57610b0b610ab2565b5b50919050565b600081905092915050565b6000610b28826106ad565b610b328185610b12565b9350610b428185602086016106c9565b80840191505092915050565b6000610b5a8284610b1d565b915081905092915050565b7f4e487b7100000000000000000000000000000000000000000000000000000000600052603260045260246000fd5b60008190508160005260206000209050919050565b60008154610bb681610ae1565b610bc08186610b12565b94506001821660008114610bdb5760018114610bf057610c23565b60ff1983168652811515820286019350610c23565b610bf985610b94565b60005b83811015610c1b57815481890152600182019150602081019050610bfc565b838801955050505b50505092915050565b6000610c388284610ba9565b915081905092915050565b7f4e487b7100000000000000000000000000000000000000000000000000000000600052601160045260246000fd5b6000819050919050565b6000610c8782610c72565b91507fffffffffffffffffffffffffffffffffffffffffffffffffffffffffffffffff8203610cb957610cb8610c43565b5b600182019050919050565b600082825260208201905092915050565b7f5461736b20646f6573206e6f7420657869737400000000000000000000000000600082015250565b6000610d0b601383610cc4565b9150610d1682610cd5565b602082019050919050565b60006020820190508181036000830152610d3a81610cfe565b905091905056fea2646970667358221220a461e56469600f48513c1465e912b7d4b15d534e0409ea5de9991378e53039dd64736f6c63430008140033a26469706673582212200e4e8dbad7e67d40199c36a764bc709d9b5bea720d7764bf733f238159efb35b64736f6c63430008140033a2646970667358221220fce6e41743d921db3e4430eaf1419c6d8433ae895bbbefcfda058bc16d1270a664736f6c63430008140033",
  "linkReferences": {},
  "deployedLinkReferences": {}
}