{
  "_format": "hh-sol-artifact-1",
  "contractName": "PlayerStatus",
  "sourceName": "contracts/PlayerStatus.sol",
  "abi": [
    {
      "inputs": [
        {
          "internalType": "string[]",
          "name": "_tasks",
          "type": "string[]"
        }
      ],
      "stateMutability": "nonpayable",
      "type": "constructor"
    },
    {
      "inputs": [
        {
          "internalType": "string",
          "name": "_task",
          "type": "string"
        }
      ],
      "name": "checkTaskExists",
      "outputs": [
        {
          "internalType": "bool",
          "name": "",
          "type": "bool"
        }
      ],
      "stateMutability": "view",
      "type": "function"
    },
    {
      "inputs": [
        {
          "internalType": "string",
          "name": "_task",
          "type": "string"
        }
      ],
      "name": "completeTask",
      "outputs": [
        {
          "internalType": "bool",
          "name": "",
          "type": "bool"
        }
      ],
      "stateMutability": "nonpayable",
      "type": "function"
    },
    {
      "inputs": [],
      "name": "gameStatus",
      "outputs": [
        {
          "internalType": "bool",
          "name": "",
          "type": "bool"
        }
      ],
      "stateMutability": "view",
      "type": "function"
    },
    {
      "inputs": [],
      "name": "getTaskStatus",
      "outputs": [
        {
          "internalType": "string[]",
          "name": "",
          "type": "string[]"
        },
        {
          "internalType": "bool[]",
          "name": "",
          "type": "bool[]"
        }
      ],
      "stateMutability": "view",
      "type": "function"
    },
    {
      "inputs": [],
      "name": "getTasks",
      "outputs": [
        {
          "internalType": "string[]",
          "name": "",
          "type": "string[]"
        }
      ],
      "stateMutability": "view",
      "type": "function"
    },
    {
      "inputs": [
        {
          "internalType": "string",
          "name": "_task",
          "type": "string"
        }
      ],
      "name": "isTaskCompleted",
      "outputs": [
        {
          "internalType": "bool",
          "name": "",
          "type": "bool"
        }
      ],
      "stateMutability": "view",
      "type": "function"
    },
    {
      "inputs": [],
      "name": "reset",
      "outputs": [],
      "stateMutability": "nonpayable",
      "type": "function"
    }
  ],
  "bytecode": "0x60806040523480156200001157600080fd5b50604051620015aa380380620015aa83398181016040528101906200003791906200039a565b60005b815181101562000103576000808383815181106200005d576200005c620003eb565b5b602002602001015160405162000074919062000467565b908152602001604051809103902060006101000a81548160ff0219169083151502179055506001828281518110620000b157620000b0620003eb565b5b6020026020010151908060018154018082558091505060019003906000526020600020016000909190919091509081620000ec9190620006c0565b508080620000fa90620007d6565b9150506200003a565b505062000823565b6000604051905090565b600080fd5b600080fd5b600080fd5b6000601f19601f8301169050919050565b7f4e487b7100000000000000000000000000000000000000000000000000000000600052604160045260246000fd5b6200016f8262000124565b810181811067ffffffffffffffff8211171562000191576200019062000135565b5b80604052505050565b6000620001a66200010b565b9050620001b4828262000164565b919050565b600067ffffffffffffffff821115620001d757620001d662000135565b5b602082029050602081019050919050565b600080fd5b600080fd5b600067ffffffffffffffff82111562000210576200020f62000135565b5b6200021b8262000124565b9050602081019050919050565b60005b83811015620002485780820151818401526020810190506200022b565b60008484015250505050565b60006200026b6200026584620001f2565b6200019a565b9050828152602081018484840111156200028a5762000289620001ed565b5b6200029784828562000228565b509392505050565b600082601f830112620002b757620002b66200011f565b5b8151620002c984826020860162000254565b91505092915050565b6000620002e9620002e384620001b9565b6200019a565b905080838252602082019050602084028301858111156200030f576200030e620001e8565b5b835b818110156200035d57805167ffffffffffffffff8111156200033857620003376200011f565b5b8086016200034789826200029f565b8552602085019450505060208101905062000311565b5050509392505050565b600082601f8301126200037f576200037e6200011f565b5b815162000391848260208601620002d2565b91505092915050565b600060208284031215620003b357620003b262000115565b5b600082015167ffffffffffffffff811115620003d457620003d36200011a565b5b620003e28482850162000367565b91505092915050565b7f4e487b7100000000000000000000000000000000000000000000000000000000600052603260045260246000fd5b600081519050919050565b600081905092915050565b60006200043d826200041a565b62000449818562000425565b93506200045b81856020860162000228565b80840191505092915050565b600062000475828462000430565b915081905092915050565b7f4e487b7100000000000000000000000000000000000000000000000000000000600052602260045260246000fd5b60006002820490506001821680620004c857607f821691505b602082108103620004de57620004dd62000480565b5b50919050565b60008190508160005260206000209050919050565b60006020601f8301049050919050565b600082821b905092915050565b600060088302620005487fffffffffffffffffffffffffffffffffffffffffffffffffffffffffffffffff8262000509565b62000554868362000509565b95508019841693508086168417925050509392505050565b6000819050919050565b6000819050919050565b6000620005a16200059b62000595846200056c565b62000576565b6200056c565b9050919050565b6000819050919050565b620005bd8362000580565b620005d5620005cc82620005a8565b84845462000516565b825550505050565b600090565b620005ec620005dd565b620005f9818484620005b2565b505050565b5b81811015620006215762000615600082620005e2565b600181019050620005ff565b5050565b601f82111562000670576200063a81620004e4565b6200064584620004f9565b8101602085101562000655578190505b6200066d6200066485620004f9565b830182620005fe565b50505b505050565b600082821c905092915050565b6000620006956000198460080262000675565b1980831691505092915050565b6000620006b0838362000682565b9150826002028217905092915050565b620006cb826200041a565b67ffffffffffffffff811115620006e757620006e662000135565b5b620006f38254620004af565b6200070082828562000625565b600060209050601f83116001811462000738576000841562000723578287015190505b6200072f8582620006a2565b8655506200079f565b601f1984166200074886620004e4565b60005b8281101562000772578489015182556001820191506020850194506020810190506200074b565b868310156200079257848901516200078e601f89168262000682565b8355505b6001600288020188555050505b505050505050565b7f4e487b7100000000000000000000000000000000000000000000000000000000600052601160045260246000fd5b6000620007e3826200056c565b91507fffffffffffffffffffffffffffffffffffffffffffffffffffffffffffffffff8203620008185762000817620007a7565b5b600182019050919050565b610d7780620008336000396000f3fe608060405234801561001057600080fd5b506004361061007d5760003560e01c80635ee66e881161005b5780635ee66e8814610100578063722fed7e1461013057806396740de31461014e578063d826f88f1461016d5761007d565b806304a87e38146100825780633251c049146100a0578063394c244b146100d0575b600080fd5b61008a610177565b60405161009791906107d3565b60405180910390f35b6100ba60048036038101906100b5919061093e565b610250565b6040516100c791906109a2565b60405180910390f35b6100ea60048036038101906100e5919061093e565b6102fd565b6040516100f791906109a2565b60405180910390f35b61011a6004803603810190610115919061093e565b61038d565b60405161012791906109a2565b60405180910390f35b61013861040a565b60405161014591906109a2565b60405180910390f35b610156610492565b604051610164929190610a7b565b60405180910390f35b610175610608565b005b60606001805480602002602001604051908101604052809291908181526020016000905b828210156102475783829060005260206000200180546101ba90610ae1565b80601f01602080910402602001604051908101604052809291908181526020018280546101e690610ae1565b80156102335780601f1061020857610100808354040283529160200191610233565b820191906000526020600020905b81548152906001019060200180831161021657829003601f168201915b50505050508152602001906001019061019b565b50505050905090565b600080600090505b6001805490508110156102f257826040516020016102769190610b4e565b60405160208183030381529060405280519060200120600182815481106102a05761029f610b65565b5b906000526020600020016040516020016102ba9190610c2c565b60405160208183030381529060405280519060200120036102df5760019150506102f8565b80806102ea90610c7c565b915050610258565b50600090505b919050565b600061030882610250565b610347576040517f08c379a000000000000000000000000000000000000000000000000000000000815260040161033e90610d21565b60405180910390fd5b60016000836040516103599190610b4e565b908152602001604051809103902060006101000a81548160ff02191690831515021790555061038661040a565b9050919050565b600061039882610250565b6103d7576040517f08c379a00000000000000000000000000000000000000000000000000000000081526004016103ce90610d21565b60405180910390fd5b6000826040516103e79190610b4e565b908152602001604051809103902060009054906101000a900460ff169050919050565b600080600090505b6001805490508110156104895760006001828154811061043557610434610b65565b5b9060005260206000200160405161044c9190610c2c565b908152602001604051809103902060009054906101000a900460ff1661047657600091505061048f565b808061048190610c7c565b915050610412565b50600190505b90565b606080606060005b600180549050811015610528576000600182815481106104bd576104bc610b65565b5b906000526020600020016040516104d49190610c2c565b908152602001604051809103902060009054906101000a900460ff1682828151811061050357610502610b65565b5b602002602001019015159081151581525050808061052090610c7c565b91505061049a565b5060018181805480602002602001604051908101604052809291908181526020016000905b828210156105f957838290600052602060002001805461056c90610ae1565b80601f016020809104026020016040519081016040528092919081815260200182805461059890610ae1565b80156105e55780601f106105ba576101008083540402835291602001916105e5565b820191906000526020600020905b8154815290600101906020018083116105c857829003601f168201915b50505050508152602001906001019061054d565b50505050915092509250509091565b60005b60018054905081101561067e576000806001838154811061062f5761062e610b65565b5b906000526020600020016040516106469190610c2c565b908152602001604051809103902060006101000a81548160ff021916908315150217905550808061067690610c7c565b91505061060b565b50565b600081519050919050565b600082825260208201905092915050565b6000819050602082019050919050565b600081519050919050565b600082825260208201905092915050565b60005b838110156106e75780820151818401526020810190506106cc565b60008484015250505050565b6000601f19601f8301169050919050565b600061070f826106ad565b61071981856106b8565b93506107298185602086016106c9565b610732816106f3565b840191505092915050565b60006107498383610704565b905092915050565b6000602082019050919050565b600061076982610681565b610773818561068c565b9350836020820285016107858561069d565b8060005b858110156107c157848403895281516107a2858261073d565b94506107ad83610751565b925060208a01995050600181019050610789565b50829750879550505050505092915050565b600060208201905081810360008301526107ed818461075e565b905092915050565b6000604051905090565b600080fd5b600080fd5b600080fd5b600080fd5b7f4e487b7100000000000000000000000000000000000000000000000000000000600052604160045260246000fd5b61084b826106f3565b810181811067ffffffffffffffff8211171561086a57610869610813565b5b80604052505050565b600061087d6107f5565b90506108898282610842565b919050565b600067ffffffffffffffff8211156108a9576108a8610813565b5b6108b2826106f3565b9050602081019050919050565b82818337600083830152505050565b60006108e16108dc8461088e565b610873565b9050828152602081018484840111156108fd576108fc61080e565b5b6109088482856108bf565b509392505050565b600082601f83011261092557610924610809565b5b81356109358482602086016108ce565b91505092915050565b600060208284031215610954576109536107ff565b5b600082013567ffffffffffffffff81111561097257610971610804565b5b61097e84828501610910565b91505092915050565b60008115159050919050565b61099c81610987565b82525050565b60006020820190506109b76000830184610993565b92915050565b600081519050919050565b600082825260208201905092915050565b6000819050602082019050919050565b6109f281610987565b82525050565b6000610a0483836109e9565b60208301905092915050565b6000602082019050919050565b6000610a28826109bd565b610a3281856109c8565b9350610a3d836109d9565b8060005b83811015610a6e578151610a5588826109f8565b9750610a6083610a10565b925050600181019050610a41565b5085935050505092915050565b60006040820190508181036000830152610a95818561075e565b90508181036020830152610aa98184610a1d565b90509392505050565b7f4e487b7100000000000000000000000000000000000000000000000000000000600052602260045260246000fd5b60006002820490506001821680610af957607f821691505b602082108103610b0c57610b0b610ab2565b5b50919050565b600081905092915050565b6000610b28826106ad565b610b328185610b12565b9350610b428185602086016106c9565b80840191505092915050565b6000610b5a8284610b1d565b915081905092915050565b7f4e487b7100000000000000000000000000000000000000000000000000000000600052603260045260246000fd5b60008190508160005260206000209050919050565b60008154610bb681610ae1565b610bc08186610b12565b94506001821660008114610bdb5760018114610bf057610c23565b60ff1983168652811515820286019350610c23565b610bf985610b94565b60005b83811015610c1b57815481890152600182019150602081019050610bfc565b838801955050505b50505092915050565b6000610c388284610ba9565b915081905092915050565b7f4e487b7100000000000000000000000000000000000000000000000000000000600052601160045260246000fd5b6000819050919050565b6000610c8782610c72565b91507fffffffffffffffffffffffffffffffffffffffffffffffffffffffffffffffff8203610cb957610cb8610c43565b5b600182019050919050565b600082825260208201905092915050565b7f5461736b20646f6573206e6f7420657869737400000000000000000000000000600082015250565b6000610d0b601383610cc4565b9150610d1682610cd5565b602082019050919050565b60006020820190508181036000830152610d3a81610cfe565b905091905056fea2646970667358221220003af1b95055187a0bb61b11f47877cbe71c04d1cc9b6a0f07740abfd420b02264736f6c63430008140033",
  "linkReferences": {},
  "deployedLinkReferences": {}
}